{
  "_format": "hh-sol-artifact-1",
  "contractName": "MyEpicGame",
  "sourceName": "contracts/MyEpicGame.sol",
  "abi": [
    {
      "inputs": [
        {
          "internalType": "string[]",
          "name": "characterNames",
          "type": "string[]"
        },
        {
          "internalType": "string[]",
          "name": "characterImageURIs",
          "type": "string[]"
        },
        {
          "internalType": "uint256[]",
          "name": "characterHp",
          "type": "uint256[]"
        },
        {
          "internalType": "uint256[]",
          "name": "characterAttackDmg",
          "type": "uint256[]"
        },
        {
          "internalType": "string",
          "name": "bossName",
          "type": "string"
        },
        {
          "internalType": "string",
          "name": "bossImageURI",
          "type": "string"
        },
        {
          "internalType": "uint256",
          "name": "bossHp",
          "type": "uint256"
        },
        {
          "internalType": "uint256",
          "name": "bossAttackDamage",
          "type": "uint256"
        }
      ],
      "stateMutability": "nonpayable",
      "type": "constructor"
    },
    {
      "anonymous": false,
      "inputs": [
        {
          "indexed": true,
          "internalType": "address",
          "name": "owner",
          "type": "address"
        },
        {
          "indexed": true,
          "internalType": "address",
          "name": "approved",
          "type": "address"
        },
        {
          "indexed": true,
          "internalType": "uint256",
          "name": "tokenId",
          "type": "uint256"
        }
      ],
      "name": "Approval",
      "type": "event"
    },
    {
      "anonymous": false,
      "inputs": [
        {
          "indexed": true,
          "internalType": "address",
          "name": "owner",
          "type": "address"
        },
        {
          "indexed": true,
          "internalType": "address",
          "name": "operator",
          "type": "address"
        },
        {
          "indexed": false,
          "internalType": "bool",
          "name": "approved",
          "type": "bool"
        }
      ],
      "name": "ApprovalForAll",
      "type": "event"
    },
    {
      "anonymous": false,
      "inputs": [
        {
          "indexed": false,
          "internalType": "address",
          "name": "sender",
          "type": "address"
        },
        {
          "indexed": false,
          "internalType": "uint256",
          "name": "tokenId",
          "type": "uint256"
        },
        {
          "indexed": false,
          "internalType": "uint256",
          "name": "characterIndex",
          "type": "uint256"
        }
      ],
      "name": "CharacterNFTMinted",
      "type": "event"
    },
    {
      "anonymous": false,
      "inputs": [
        {
          "indexed": true,
          "internalType": "address",
          "name": "from",
          "type": "address"
        },
        {
          "indexed": true,
          "internalType": "address",
          "name": "to",
          "type": "address"
        },
        {
          "indexed": true,
          "internalType": "uint256",
          "name": "tokenId",
          "type": "uint256"
        }
      ],
      "name": "Transfer",
      "type": "event"
    },
    {
      "anonymous": false,
      "inputs": [
        {
          "indexed": false,
          "internalType": "uint256",
          "name": "newBossHp",
          "type": "uint256"
        },
        {
          "indexed": false,
          "internalType": "uint256",
          "name": "newPlayerHp",
          "type": "uint256"
        }
      ],
      "name": "attackComplete",
      "type": "event"
    },
    {
      "inputs": [
        {
          "internalType": "address",
          "name": "to",
          "type": "address"
        },
        {
          "internalType": "uint256",
          "name": "tokenId",
          "type": "uint256"
        }
      ],
      "name": "approve",
      "outputs": [],
      "stateMutability": "nonpayable",
      "type": "function"
    },
    {
      "inputs": [],
      "name": "attackBoss",
      "outputs": [],
      "stateMutability": "nonpayable",
      "type": "function"
    },
    {
      "inputs": [
        {
          "internalType": "address",
          "name": "owner",
          "type": "address"
        }
      ],
      "name": "balanceOf",
      "outputs": [
        {
          "internalType": "uint256",
          "name": "",
          "type": "uint256"
        }
      ],
      "stateMutability": "view",
      "type": "function"
    },
    {
      "inputs": [],
      "name": "bigBoss",
      "outputs": [
        {
          "internalType": "string",
          "name": "name",
          "type": "string"
        },
        {
          "internalType": "string",
          "name": "imageURI",
          "type": "string"
        },
        {
          "internalType": "uint256",
          "name": "hp",
          "type": "uint256"
        },
        {
          "internalType": "uint256",
          "name": "maxHp",
          "type": "uint256"
        },
        {
          "internalType": "uint256",
          "name": "attackDamage",
          "type": "uint256"
        }
      ],
      "stateMutability": "view",
      "type": "function"
    },
    {
      "inputs": [],
      "name": "checkIfUserHasNFT",
      "outputs": [
        {
          "components": [
            {
              "internalType": "uint256",
              "name": "characterIndex",
              "type": "uint256"
            },
            {
              "internalType": "string",
              "name": "name",
              "type": "string"
            },
            {
              "internalType": "string",
              "name": "imageURI",
              "type": "string"
            },
            {
              "internalType": "uint256",
              "name": "hp",
              "type": "uint256"
            },
            {
              "internalType": "uint256",
              "name": "maxHp",
              "type": "uint256"
            },
            {
              "internalType": "uint256",
              "name": "attackDamage",
              "type": "uint256"
            }
          ],
          "internalType": "struct MyEpicGame.CharacterAttributes",
          "name": "",
          "type": "tuple"
        }
      ],
      "stateMutability": "view",
      "type": "function"
    },
    {
      "inputs": [],
      "name": "getAllDefaultCharacters",
      "outputs": [
        {
          "components": [
            {
              "internalType": "uint256",
              "name": "characterIndex",
              "type": "uint256"
            },
            {
              "internalType": "string",
              "name": "name",
              "type": "string"
            },
            {
              "internalType": "string",
              "name": "imageURI",
              "type": "string"
            },
            {
              "internalType": "uint256",
              "name": "hp",
              "type": "uint256"
            },
            {
              "internalType": "uint256",
              "name": "maxHp",
              "type": "uint256"
            },
            {
              "internalType": "uint256",
              "name": "attackDamage",
              "type": "uint256"
            }
          ],
          "internalType": "struct MyEpicGame.CharacterAttributes[]",
          "name": "",
          "type": "tuple[]"
        }
      ],
      "stateMutability": "view",
      "type": "function"
    },
    {
      "inputs": [
        {
          "internalType": "uint256",
          "name": "tokenId",
          "type": "uint256"
        }
      ],
      "name": "getApproved",
      "outputs": [
        {
          "internalType": "address",
          "name": "",
          "type": "address"
        }
      ],
      "stateMutability": "view",
      "type": "function"
    },
    {
      "inputs": [],
      "name": "getBoss",
      "outputs": [
        {
          "components": [
            {
              "internalType": "string",
              "name": "name",
              "type": "string"
            },
            {
              "internalType": "string",
              "name": "imageURI",
              "type": "string"
            },
            {
              "internalType": "uint256",
              "name": "hp",
              "type": "uint256"
            },
            {
              "internalType": "uint256",
              "name": "maxHp",
              "type": "uint256"
            },
            {
              "internalType": "uint256",
              "name": "attackDamage",
              "type": "uint256"
            }
          ],
          "internalType": "struct MyEpicGame.BigBoss",
          "name": "",
          "type": "tuple"
        }
      ],
      "stateMutability": "view",
      "type": "function"
    },
    {
      "inputs": [
        {
          "internalType": "address",
          "name": "owner",
          "type": "address"
        },
        {
          "internalType": "address",
          "name": "operator",
          "type": "address"
        }
      ],
      "name": "isApprovedForAll",
      "outputs": [
        {
          "internalType": "bool",
          "name": "",
          "type": "bool"
        }
      ],
      "stateMutability": "view",
      "type": "function"
    },
    {
      "inputs": [
        {
          "internalType": "uint256",
          "name": "_characterIndex",
          "type": "uint256"
        }
      ],
      "name": "mintCharacterNFT",
      "outputs": [],
      "stateMutability": "nonpayable",
      "type": "function"
    },
    {
      "inputs": [],
      "name": "name",
      "outputs": [
        {
          "internalType": "string",
          "name": "",
          "type": "string"
        }
      ],
      "stateMutability": "view",
      "type": "function"
    },
    {
      "inputs": [
        {
          "internalType": "uint256",
          "name": "",
          "type": "uint256"
        }
      ],
      "name": "nftHolderAttributes",
      "outputs": [
        {
          "internalType": "uint256",
          "name": "characterIndex",
          "type": "uint256"
        },
        {
          "internalType": "string",
          "name": "name",
          "type": "string"
        },
        {
          "internalType": "string",
          "name": "imageURI",
          "type": "string"
        },
        {
          "internalType": "uint256",
          "name": "hp",
          "type": "uint256"
        },
        {
          "internalType": "uint256",
          "name": "maxHp",
          "type": "uint256"
        },
        {
          "internalType": "uint256",
          "name": "attackDamage",
          "type": "uint256"
        }
      ],
      "stateMutability": "view",
      "type": "function"
    },
    {
      "inputs": [
        {
          "internalType": "address",
          "name": "",
          "type": "address"
        }
      ],
      "name": "nftHolders",
      "outputs": [
        {
          "internalType": "uint256",
          "name": "",
          "type": "uint256"
        }
      ],
      "stateMutability": "view",
      "type": "function"
    },
    {
      "inputs": [
        {
          "internalType": "uint256",
          "name": "tokenId",
          "type": "uint256"
        }
      ],
      "name": "ownerOf",
      "outputs": [
        {
          "internalType": "address",
          "name": "",
          "type": "address"
        }
      ],
      "stateMutability": "view",
      "type": "function"
    },
    {
      "inputs": [
        {
          "internalType": "address",
          "name": "from",
          "type": "address"
        },
        {
          "internalType": "address",
          "name": "to",
          "type": "address"
        },
        {
          "internalType": "uint256",
          "name": "tokenId",
          "type": "uint256"
        }
      ],
      "name": "safeTransferFrom",
      "outputs": [],
      "stateMutability": "nonpayable",
      "type": "function"
    },
    {
      "inputs": [
        {
          "internalType": "address",
          "name": "from",
          "type": "address"
        },
        {
          "internalType": "address",
          "name": "to",
          "type": "address"
        },
        {
          "internalType": "uint256",
          "name": "tokenId",
          "type": "uint256"
        },
        {
          "internalType": "bytes",
          "name": "_data",
          "type": "bytes"
        }
      ],
      "name": "safeTransferFrom",
      "outputs": [],
      "stateMutability": "nonpayable",
      "type": "function"
    },
    {
      "inputs": [
        {
          "internalType": "address",
          "name": "operator",
          "type": "address"
        },
        {
          "internalType": "bool",
          "name": "approved",
          "type": "bool"
        }
      ],
      "name": "setApprovalForAll",
      "outputs": [],
      "stateMutability": "nonpayable",
      "type": "function"
    },
    {
      "inputs": [
        {
          "internalType": "bytes4",
          "name": "interfaceId",
          "type": "bytes4"
        }
      ],
      "name": "supportsInterface",
      "outputs": [
        {
          "internalType": "bool",
          "name": "",
          "type": "bool"
        }
      ],
      "stateMutability": "view",
      "type": "function"
    },
    {
      "inputs": [],
      "name": "symbol",
      "outputs": [
        {
          "internalType": "string",
          "name": "",
          "type": "string"
        }
      ],
      "stateMutability": "view",
      "type": "function"
    },
    {
      "inputs": [
        {
          "internalType": "uint256",
          "name": "_tokenId",
          "type": "uint256"
        }
      ],
      "name": "tokenURI",
      "outputs": [
        {
          "internalType": "string",
          "name": "",
          "type": "string"
        }
      ],
      "stateMutability": "view",
      "type": "function"
    },
    {
      "inputs": [
        {
          "internalType": "address",
          "name": "from",
          "type": "address"
        },
        {
          "internalType": "address",
          "name": "to",
          "type": "address"
        },
        {
          "internalType": "uint256",
          "name": "tokenId",
          "type": "uint256"
        }
      ],
      "name": "transferFrom",
      "outputs": [],
      "stateMutability": "nonpayable",
      "type": "function"
    }
  ],
  "bytecode": "0x60806040523480156200001157600080fd5b5060405162005591380380620055918339818101604052810190620000379190620008f9565b6040518060400160405280600681526020017f4865726f657300000000000000000000000000000000000000000000000000008152506040518060400160405280600481526020017f4845524f000000000000000000000000000000000000000000000000000000008152508160009080519060200190620000bb9291906200068c565b508060019080519060200190620000d49291906200068c565b5050506040518060a0016040528085815260200184815260200183815260200183815260200182815250600660008201518160000190805190602001906200011e9291906200068c565b5060208201518160010190805190602001906200013d9291906200068c565b5060408201518160020155606082015181600301556080820151816004015590505060005b88518110156200057b57600c6040518060c001604052808381526020018b8481518110620001b9577f4e487b7100000000000000000000000000000000000000000000000000000000600052603260045260246000fd5b602002602001015181526020018a848151811062000200577f4e487b7100000000000000000000000000000000000000000000000000000000600052603260045260246000fd5b6020026020010151815260200189848151811062000247577f4e487b7100000000000000000000000000000000000000000000000000000000600052603260045260246000fd5b602002602001015181526020018984815181106200028e577f4e487b7100000000000000000000000000000000000000000000000000000000600052603260045260246000fd5b60200260200101518152602001888481518110620002d5577f4e487b7100000000000000000000000000000000000000000000000000000000600052603260045260246000fd5b60200260200101518152509080600181540180825580915050600190039060005260206000209060060201600090919091909150600082015181600001556020820151816001019080519060200190620003319291906200068c565b506040820151816002019080519060200190620003509291906200068c565b50606082015181600301556080820151816004015560a0820151816005015550506000600c8281548110620003ae577f4e487b7100000000000000000000000000000000000000000000000000000000600052603260045260246000fd5b90600052602060002090600602016040518060c001604052908160008201548152602001600182018054620003e39062000c84565b80601f0160208091040260200160405190810160405280929190818152602001828054620004119062000c84565b8015620004625780601f10620004365761010080835404028352916020019162000462565b820191906000526020600020905b8154815290600101906020018083116200044457829003601f168201915b505050505081526020016002820180546200047d9062000c84565b80601f0160208091040260200160405190810160405280929190818152602001828054620004ab9062000c84565b8015620004fc5780601f10620004d057610100808354040283529160200191620004fc565b820191906000526020600020905b815481529060010190602001808311620004de57829003601f168201915b5050505050815260200160038201548152602001600482015481526020016005820154815250509050620005636040518060600160405280602581526020016200556c60259139826020015183606001518460400151620005a160201b62001d401760201c565b5060018162000573919062000be7565b905062000162565b5062000593600b6200064d60201b62001de21760201c565b505050505050505062000d72565b6200064784848484604051602401620005be949392919062000aa4565b6040516020818303038152906040527f8d142cdd000000000000000000000000000000000000000000000000000000007bffffffffffffffffffffffffffffffffffffffffffffffffffffffff19166020820180517bffffffffffffffffffffffffffffffffffffffffffffffffffffffff83818316178352505050506200066360201b60201c565b50505050565b6001816000016000828254019250508190555050565b60008151905060006a636f6e736f6c652e6c6f679050602083016000808483855afa5050505050565b8280546200069a9062000c84565b90600052602060002090601f016020900481019282620006be57600085556200070a565b82601f10620006d957805160ff19168380011785556200070a565b828001600101855582156200070a579182015b8281111562000709578251825591602001919060010190620006ec565b5b5090506200071991906200071d565b5090565b5b80821115620007385760008160009055506001016200071e565b5090565b6000620007536200074d8462000b3a565b62000b06565b9050808382526020820190508260005b858110156200079757815185016200077c8882620008b5565b84526020840193506020830192505060018101905062000763565b5050509392505050565b6000620007b8620007b28462000b69565b62000b06565b90508083825260208201905082856020860282011115620007d857600080fd5b60005b858110156200080c5781620007f18882620008e2565b845260208401935060208301925050600181019050620007db565b5050509392505050565b60006200082d620008278462000b98565b62000b06565b9050828152602081018484840111156200084657600080fd5b6200085384828562000c4e565b509392505050565b600082601f8301126200086d57600080fd5b81516200087f8482602086016200073c565b91505092915050565b600082601f8301126200089a57600080fd5b8151620008ac848260208601620007a1565b91505092915050565b600082601f830112620008c757600080fd5b8151620008d984826020860162000816565b91505092915050565b600081519050620008f38162000d58565b92915050565b600080600080600080600080610100898b0312156200091757600080fd5b600089015167ffffffffffffffff8111156200093257600080fd5b620009408b828c016200085b565b985050602089015167ffffffffffffffff8111156200095e57600080fd5b6200096c8b828c016200085b565b975050604089015167ffffffffffffffff8111156200098a57600080fd5b620009988b828c0162000888565b965050606089015167ffffffffffffffff811115620009b657600080fd5b620009c48b828c0162000888565b955050608089015167ffffffffffffffff811115620009e257600080fd5b620009f08b828c01620008b5565b94505060a089015167ffffffffffffffff81111562000a0e57600080fd5b62000a1c8b828c01620008b5565b93505060c062000a2f8b828c01620008e2565b92505060e062000a428b828c01620008e2565b9150509295985092959890939650565b600062000a5f8262000bcb565b62000a6b818562000bd6565b935062000a7d81856020860162000c4e565b62000a888162000d47565b840191505092915050565b62000a9e8162000c44565b82525050565b6000608082019050818103600083015262000ac0818762000a52565b9050818103602083015262000ad6818662000a52565b905062000ae7604083018562000a93565b818103606083015262000afb818462000a52565b905095945050505050565b6000604051905081810181811067ffffffffffffffff8211171562000b305762000b2f62000d18565b5b8060405250919050565b600067ffffffffffffffff82111562000b585762000b5762000d18565b5b602082029050602081019050919050565b600067ffffffffffffffff82111562000b875762000b8662000d18565b5b602082029050602081019050919050565b600067ffffffffffffffff82111562000bb65762000bb562000d18565b5b601f19601f8301169050602081019050919050565b600081519050919050565b600082825260208201905092915050565b600062000bf48262000c44565b915062000c018362000c44565b9250827fffffffffffffffffffffffffffffffffffffffffffffffffffffffffffffffff0382111562000c395762000c3862000cba565b5b828201905092915050565b6000819050919050565b60005b8381101562000c6e57808201518184015260208101905062000c51565b8381111562000c7e576000848401525b50505050565b6000600282049050600182168062000c9d57607f821691505b6020821081141562000cb45762000cb362000ce9565b5b50919050565b7f4e487b7100000000000000000000000000000000000000000000000000000000600052601160045260246000fd5b7f4e487b7100000000000000000000000000000000000000000000000000000000600052602260045260246000fd5b7f4e487b7100000000000000000000000000000000000000000000000000000000600052604160045260246000fd5b6000601f19601f8301169050919050565b62000d638162000c44565b811462000d6f57600080fd5b50565b6147ea8062000d826000396000f3fe608060405234801561001057600080fd5b50600436106101375760003560e01c806398da4c95116100b8578063c76d9e7d1161007c578063c76d9e7d14610369578063c87b56dd14610387578063c8cf27f4146103b7578063d4f24c5b146103d5578063e985e9c5146103df578063f8b81ef71461040f57610137565b806398da4c95146102bc578063a22cb465146102f1578063a9c326791461030d578063b88d4fde1461032f578063b953084e1461034b57610137565b806342842e0e116100ff57806342842e0e146101f25780636352211e1461020e57806370a082311461023e5780637df124a11461026e57806395d89b411461029e57610137565b806301ffc9a71461013c57806306fdde031461016c578063081812fc1461018a578063095ea7b3146101ba57806323b872dd146101d6575b600080fd5b6101566004803603810190610151919061301a565b61042b565b6040516101639190613da0565b60405180910390f35b61017461050d565b6040516101819190613dbb565b60405180910390f35b6101a4600480360381019061019f919061306c565b61059f565b6040516101b19190613ce0565b60405180910390f35b6101d460048036038101906101cf9190612fde565b610624565b005b6101f060048036038101906101eb9190612ed8565b61073c565b005b61020c60048036038101906102079190612ed8565b61079c565b005b6102286004803603810190610223919061306c565b6107bc565b6040516102359190613ce0565b60405180910390f35b61025860048036038101906102539190612e73565b61086e565b604051610265919061417d565b60405180910390f35b61028860048036038101906102839190612e73565b610926565b604051610295919061417d565b60405180910390f35b6102a661093e565b6040516102b39190613dbb565b60405180910390f35b6102d660048036038101906102d1919061306c565b6109d0565b6040516102e896959493929190614198565b60405180910390f35b61030b60048036038101906103069190612fa2565b610b1c565b005b610315610c9d565b604051610326959493929190613e8a565b60405180910390f35b61034960048036038101906103449190612f27565b610dd1565b005b610353610e33565b6040516103609190613d7e565b60405180910390f35b610371610fde565b60405161037e9190614139565b60405180910390f35b6103a1600480360381019061039c919061306c565b61113a565b6040516103ae9190613dbb565b60405180910390f35b6103bf611355565b6040516103cc919061415b565b60405180910390f35b6103dd61152d565b005b6103f960048036038101906103f49190612e9c565b6118b8565b6040516104069190613da0565b60405180910390f35b6104296004803603810190610424919061306c565b61194c565b005b60007f80ac58cd000000000000000000000000000000000000000000000000000000007bffffffffffffffffffffffffffffffffffffffffffffffffffffffff1916827bffffffffffffffffffffffffffffffffffffffffffffffffffffffff191614806104f657507f5b5e139f000000000000000000000000000000000000000000000000000000007bffffffffffffffffffffffffffffffffffffffffffffffffffffffff1916827bffffffffffffffffffffffffffffffffffffffffffffffffffffffff1916145b80610506575061050582611df8565b5b9050919050565b60606000805461051c906144e9565b80601f0160208091040260200160405190810160405280929190818152602001828054610548906144e9565b80156105955780601f1061056a57610100808354040283529160200191610595565b820191906000526020600020905b81548152906001019060200180831161057857829003601f168201915b5050505050905090565b60006105aa82611e62565b6105e9576040517f08c379a00000000000000000000000000000000000000000000000000000000081526004016105e0906140b9565b60405180910390fd5b6004600083815260200190815260200160002060009054906101000a900473ffffffffffffffffffffffffffffffffffffffff169050919050565b600061062f826107bc565b90508073ffffffffffffffffffffffffffffffffffffffff168373ffffffffffffffffffffffffffffffffffffffff1614156106a0576040517f08c379a0000000000000000000000000000000000000000000000000000000008152600401610697906140f9565b60405180910390fd5b8073ffffffffffffffffffffffffffffffffffffffff166106bf611ece565b73ffffffffffffffffffffffffffffffffffffffff1614806106ee57506106ed816106e8611ece565b6118b8565b5b61072d576040517f08c379a000000000000000000000000000000000000000000000000000000000815260040161072490614019565b60405180910390fd5b6107378383611ed6565b505050565b61074d610747611ece565b82611f8f565b61078c576040517f08c379a000000000000000000000000000000000000000000000000000000000815260040161078390614119565b60405180910390fd5b61079783838361206d565b505050565b6107b783838360405180602001604052806000815250610dd1565b505050565b6000806002600084815260200190815260200160002060009054906101000a900473ffffffffffffffffffffffffffffffffffffffff169050600073ffffffffffffffffffffffffffffffffffffffff168173ffffffffffffffffffffffffffffffffffffffff161415610865576040517f08c379a000000000000000000000000000000000000000000000000000000000815260040161085c90614059565b60405180910390fd5b80915050919050565b60008073ffffffffffffffffffffffffffffffffffffffff168273ffffffffffffffffffffffffffffffffffffffff1614156108df576040517f08c379a00000000000000000000000000000000000000000000000000000000081526004016108d690614039565b60405180910390fd5b600360008373ffffffffffffffffffffffffffffffffffffffff1673ffffffffffffffffffffffffffffffffffffffff168152602001908152602001600020549050919050565b600e6020528060005260406000206000915090505481565b60606001805461094d906144e9565b80601f0160208091040260200160405190810160405280929190818152602001828054610979906144e9565b80156109c65780601f1061099b576101008083540402835291602001916109c6565b820191906000526020600020905b8154815290600101906020018083116109a957829003601f168201915b5050505050905090565b600d6020528060005260406000206000915090508060000154908060010180546109f9906144e9565b80601f0160208091040260200160405190810160405280929190818152602001828054610a25906144e9565b8015610a725780601f10610a4757610100808354040283529160200191610a72565b820191906000526020600020905b815481529060010190602001808311610a5557829003601f168201915b505050505090806002018054610a87906144e9565b80601f0160208091040260200160405190810160405280929190818152602001828054610ab3906144e9565b8015610b005780601f10610ad557610100808354040283529160200191610b00565b820191906000526020600020905b815481529060010190602001808311610ae357829003601f168201915b5050505050908060030154908060040154908060050154905086565b610b24611ece565b73ffffffffffffffffffffffffffffffffffffffff168273ffffffffffffffffffffffffffffffffffffffff161415610b92576040517f08c379a0000000000000000000000000000000000000000000000000000000008152600401610b8990613fd9565b60405180910390fd5b8060056000610b9f611ece565b73ffffffffffffffffffffffffffffffffffffffff1673ffffffffffffffffffffffffffffffffffffffff16815260200190815260200160002060008473ffffffffffffffffffffffffffffffffffffffff1673ffffffffffffffffffffffffffffffffffffffff16815260200190815260200160002060006101000a81548160ff0219169083151502179055508173ffffffffffffffffffffffffffffffffffffffff16610c4c611ece565b73ffffffffffffffffffffffffffffffffffffffff167f17307eab39ab6107e8899845ad3d59bd9653f200f220920489ca2b5937696c3183604051610c919190613da0565b60405180910390a35050565b6006806000018054610cae906144e9565b80601f0160208091040260200160405190810160405280929190818152602001828054610cda906144e9565b8015610d275780601f10610cfc57610100808354040283529160200191610d27565b820191906000526020600020905b815481529060010190602001808311610d0a57829003601f168201915b505050505090806001018054610d3c906144e9565b80601f0160208091040260200160405190810160405280929190818152602001828054610d68906144e9565b8015610db55780601f10610d8a57610100808354040283529160200191610db5565b820191906000526020600020905b815481529060010190602001808311610d9857829003601f168201915b5050505050908060020154908060030154908060040154905085565b610de2610ddc611ece565b83611f8f565b610e21576040517f08c379a0000000000000000000000000000000000000000000000000000000008152600401610e1890614119565b60405180910390fd5b610e2d848484846122c9565b50505050565b6060600c805480602002602001604051908101604052809291908181526020016000905b82821015610fd557838290600052602060002090600602016040518060c001604052908160008201548152602001600182018054610e94906144e9565b80601f0160208091040260200160405190810160405280929190818152602001828054610ec0906144e9565b8015610f0d5780601f10610ee257610100808354040283529160200191610f0d565b820191906000526020600020905b815481529060010190602001808311610ef057829003601f168201915b50505050508152602001600282018054610f26906144e9565b80601f0160208091040260200160405190810160405280929190818152602001828054610f52906144e9565b8015610f9f5780601f10610f7457610100808354040283529160200191610f9f565b820191906000526020600020905b815481529060010190602001808311610f8257829003601f168201915b50505050508152602001600382015481526020016004820154815260200160058201548152505081526020019060010190610e57565b50505050905090565b610fe6612c9a565b60066040518060a0016040529081600082018054611003906144e9565b80601f016020809104026020016040519081016040528092919081815260200182805461102f906144e9565b801561107c5780601f106110515761010080835404028352916020019161107c565b820191906000526020600020905b81548152906001019060200180831161105f57829003601f168201915b50505050508152602001600182018054611095906144e9565b80601f01602080910402602001604051908101604052809291908181526020018280546110c1906144e9565b801561110e5780601f106110e35761010080835404028352916020019161110e565b820191906000526020600020905b8154815290600101906020018083116110f157829003601f168201915b505050505081526020016002820154815260200160038201548152602001600482015481525050905090565b60606000600d60008481526020019081526020016000206040518060c001604052908160008201548152602001600182018054611176906144e9565b80601f01602080910402602001604051908101604052809291908181526020018280546111a2906144e9565b80156111ef5780601f106111c4576101008083540402835291602001916111ef565b820191906000526020600020905b8154815290600101906020018083116111d257829003601f168201915b50505050508152602001600282018054611208906144e9565b80601f0160208091040260200160405190810160405280929190818152602001828054611234906144e9565b80156112815780601f1061125657610100808354040283529160200191611281565b820191906000526020600020905b81548152906001019060200180831161126457829003601f168201915b505050505081526020016003820154815260200160048201548152602001600582015481525050905060006112b98260600151612325565b905060006112ca8360800151612325565b905060006112db8460a00151612325565b9050600061132185602001516112f089612325565b876040015187878760405160200161130d96959493929190613c19565b6040516020818303038152906040526124d2565b90506000816040516020016113369190613cbe565b6040516020818303038152906040529050809650505050505050919050565b61135d612cc9565b6000600e60003373ffffffffffffffffffffffffffffffffffffffff1673ffffffffffffffffffffffffffffffffffffffff168152602001908152602001600020549050600081111561151c57600d60008281526020019081526020016000206040518060c0016040529081600082015481526020016001820180546113e2906144e9565b80601f016020809104026020016040519081016040528092919081815260200182805461140e906144e9565b801561145b5780601f106114305761010080835404028352916020019161145b565b820191906000526020600020905b81548152906001019060200180831161143e57829003601f168201915b50505050508152602001600282018054611474906144e9565b80601f01602080910402602001604051908101604052809291908181526020018280546114a0906144e9565b80156114ed5780601f106114c2576101008083540402835291602001916114ed565b820191906000526020600020905b8154815290600101906020018083116114d057829003601f168201915b50505050508152602001600382015481526020016004820154815260200160058201548152505091505061152a565b611524612cc9565b80925050505b90565b6000600e60003373ffffffffffffffffffffffffffffffffffffffff1673ffffffffffffffffffffffffffffffffffffffff1681526020019081526020016000205490506000600d600083815260200190815260200160002090506116406040518060600160405280603c8152602001614779603c91398260010180546115b3906144e9565b80601f01602080910402602001604051908101604052809291908181526020018280546115df906144e9565b801561162c5780601f106116015761010080835404028352916020019161162c565b820191906000526020600020905b81548152906001019060200180831161160f57829003601f168201915b505050505083600301548460050154612690565b6117186040518060400160405280601b81526020017f426f73732025732068617320257320485020616e64202573204144000000000081525060066000018054611689906144e9565b80601f01602080910402602001604051908101604052809291908181526020018280546116b5906144e9565b80156117025780601f106116d757610100808354040283529160200191611702565b820191906000526020600020905b8154815290600101906020018083116116e557829003601f168201915b5050505050600660020154600660040154612690565b600081600301541161175f576040517f08c379a000000000000000000000000000000000000000000000000000000000815260040161175690614079565b60405180910390fd5b6000600660020154116117a7576040517f08c379a000000000000000000000000000000000000000000000000000000000815260040161179e90613f79565b60405180910390fd5b806005015460066002015410156117c85760006006600201819055506117e7565b80600501546006600201546117dd91906143ff565b6006600201819055505b600660040154816003015410156118075760008160030181905550611825565b600660040154816003015461181c91906143ff565b81600301819055505b61184c6040518060600160405280602581526020016146ed60259139600660020154612732565b611872604051806060016040528060278152602001614752602791398260030154612732565b7f88751e3c7c7beb77318d9befb1a6ac7a858a7e6ec2593a0429851d817fd3358960066002015482600301546040516118ac929190614207565b60405180910390a15050565b6000600560008473ffffffffffffffffffffffffffffffffffffffff1673ffffffffffffffffffffffffffffffffffffffff16815260200190815260200160002060008373ffffffffffffffffffffffffffffffffffffffff1673ffffffffffffffffffffffffffffffffffffffff16815260200190815260200160002060009054906101000a900460ff16905092915050565b6000611958600b6127ce565b905061196433826127dc565b6040518060c00160405280838152602001600c84815481106119af577f4e487b7100000000000000000000000000000000000000000000000000000000600052603260045260246000fd5b906000526020600020906006020160010180546119cb906144e9565b80601f01602080910402602001604051908101604052809291908181526020018280546119f7906144e9565b8015611a445780601f10611a1957610100808354040283529160200191611a44565b820191906000526020600020905b815481529060010190602001808311611a2757829003601f168201915b50505050508152602001600c8481548110611a88577f4e487b7100000000000000000000000000000000000000000000000000000000600052603260045260246000fd5b90600052602060002090600602016002018054611aa4906144e9565b80601f0160208091040260200160405190810160405280929190818152602001828054611ad0906144e9565b8015611b1d5780601f10611af257610100808354040283529160200191611b1d565b820191906000526020600020905b815481529060010190602001808311611b0057829003601f168201915b50505050508152602001600c8481548110611b61577f4e487b7100000000000000000000000000000000000000000000000000000000600052603260045260246000fd5b9060005260206000209060060201600301548152602001600c8481548110611bb2577f4e487b7100000000000000000000000000000000000000000000000000000000600052603260045260246000fd5b9060005260206000209060060201600401548152602001600c8481548110611c03577f4e487b7100000000000000000000000000000000000000000000000000000000600052603260045260246000fd5b906000526020600020906006020160050154815250600d6000838152602001908152602001600020600082015181600001556020820151816001019080519060200190611c51929190612cff565b506040820151816002019080519060200190611c6e929190612cff565b50606082015181600301556080820151816004015560a08201518160050155905050611cb36040518060600160405280602e81526020016146bf602e913982846127fa565b80600e60003373ffffffffffffffffffffffffffffffffffffffff1673ffffffffffffffffffffffffffffffffffffffff16815260200190815260200160002081905550611d01600b611de2565b7f4bc303fd457a97b4691b9af582ce71868a3d258638c8d4f8c60988a0f0bfb8cd338284604051611d3493929190613d47565b60405180910390a15050565b611ddc84848484604051602401611d5a9493929190613ddd565b6040516020818303038152906040527f8d142cdd000000000000000000000000000000000000000000000000000000007bffffffffffffffffffffffffffffffffffffffffffffffffffffffff19166020820180517bffffffffffffffffffffffffffffffffffffffffffffffffffffffff8381831617835250505050612899565b50505050565b6001816000016000828254019250508190555050565b60007f01ffc9a7000000000000000000000000000000000000000000000000000000007bffffffffffffffffffffffffffffffffffffffffffffffffffffffff1916827bffffffffffffffffffffffffffffffffffffffffffffffffffffffff1916149050919050565b60008073ffffffffffffffffffffffffffffffffffffffff166002600084815260200190815260200160002060009054906101000a900473ffffffffffffffffffffffffffffffffffffffff1673ffffffffffffffffffffffffffffffffffffffff1614159050919050565b600033905090565b816004600083815260200190815260200160002060006101000a81548173ffffffffffffffffffffffffffffffffffffffff021916908373ffffffffffffffffffffffffffffffffffffffff160217905550808273ffffffffffffffffffffffffffffffffffffffff16611f49836107bc565b73ffffffffffffffffffffffffffffffffffffffff167f8c5be1e5ebec7d5bd14f71427d1e84f3dd0314c0f7b2291e5b200ac8c7c3b92560405160405180910390a45050565b6000611f9a82611e62565b611fd9576040517f08c379a0000000000000000000000000000000000000000000000000000000008152600401611fd090613ff9565b60405180910390fd5b6000611fe4836107bc565b90508073ffffffffffffffffffffffffffffffffffffffff168473ffffffffffffffffffffffffffffffffffffffff16148061205357508373ffffffffffffffffffffffffffffffffffffffff1661203b8461059f565b73ffffffffffffffffffffffffffffffffffffffff16145b80612064575061206381856118b8565b5b91505092915050565b8273ffffffffffffffffffffffffffffffffffffffff1661208d826107bc565b73ffffffffffffffffffffffffffffffffffffffff16146120e3576040517f08c379a00000000000000000000000000000000000000000000000000000000081526004016120da906140d9565b60405180910390fd5b600073ffffffffffffffffffffffffffffffffffffffff168273ffffffffffffffffffffffffffffffffffffffff161415612153576040517f08c379a000000000000000000000000000000000000000000000000000000000815260040161214a90613fb9565b60405180910390fd5b61215e8383836128c2565b612169600082611ed6565b6001600360008573ffffffffffffffffffffffffffffffffffffffff1673ffffffffffffffffffffffffffffffffffffffff16815260200190815260200160002060008282546121b991906143ff565b925050819055506001600360008473ffffffffffffffffffffffffffffffffffffffff1673ffffffffffffffffffffffffffffffffffffffff1681526020019081526020016000206000828254612210919061431e565b92505081905550816002600083815260200190815260200160002060006101000a81548173ffffffffffffffffffffffffffffffffffffffff021916908373ffffffffffffffffffffffffffffffffffffffff160217905550808273ffffffffffffffffffffffffffffffffffffffff168473ffffffffffffffffffffffffffffffffffffffff167fddf252ad1be2c89b69c2b068fc378daa952ba7f163c4a11628f55a4df523b3ef60405160405180910390a4505050565b6122d484848461206d565b6122e0848484846128c7565b61231f576040517f08c379a000000000000000000000000000000000000000000000000000000000815260040161231690613f59565b60405180910390fd5b50505050565b6060600082141561236d576040518060400160405280600181526020017f300000000000000000000000000000000000000000000000000000000000000081525090506124cd565b600082905060005b6000821461239f5780806123889061451b565b915050600a826123989190614374565b9150612375565b60008167ffffffffffffffff8111156123e1577f4e487b7100000000000000000000000000000000000000000000000000000000600052604160045260246000fd5b6040519080825280601f01601f1916602001820160405280156124135781602001600182028036833780820191505090505b5090505b600085146124c65760018261242c91906143ff565b9150600a8561243b9190614564565b6030612447919061431e565b60f81b818381518110612483577f4e487b7100000000000000000000000000000000000000000000000000000000600052603260045260246000fd5b60200101907effffffffffffffffffffffffffffffffffffffffffffffffffffffffffffff1916908160001a905350600a856124bf9190614374565b9450612417565b8093505050505b919050565b606060008251905060008114156124fb576040518060200160405280600081525091505061268b565b6000600360028361250c919061431e565b6125169190614374565b600461252291906143a5565b90506000602082612533919061431e565b67ffffffffffffffff811115612572577f4e487b7100000000000000000000000000000000000000000000000000000000600052604160045260246000fd5b6040519080825280601f01601f1916602001820160405280156125a45781602001600182028036833780820191505090505b5090506000604051806060016040528060408152602001614712604091399050600181016020830160005b868110156126485760038101905062ffffff818a015116603f8160121c168401518060081b905060ff603f83600c1c1686015116810190508060081b905060ff603f8360061c1686015116810190508060081b905060ff603f831686015116810190508060e01b905080845260048401935050506125cf565b50600386066001811461266257600281146126725761267d565b613d3d60f01b600283035261267d565b603d60f81b60018303525b508484525050819450505050505b919050565b61272c848484846040516024016126aa9493929190613e37565b6040516020818303038152906040527fd5cf17d0000000000000000000000000000000000000000000000000000000007bffffffffffffffffffffffffffffffffffffffffffffffffffffffff19166020820180517bffffffffffffffffffffffffffffffffffffffffffffffffffffffff8381831617835250505050612899565b50505050565b6127ca8282604051602401612748929190613eeb565b6040516020818303038152906040527f9710a9d0000000000000000000000000000000000000000000000000000000007bffffffffffffffffffffffffffffffffffffffffffffffffffffffff19166020820180517bffffffffffffffffffffffffffffffffffffffffffffffffffffffff8381831617835250505050612899565b5050565b600081600001549050919050565b6127f6828260405180602001604052806000815250612a5e565b5050565b61289483838360405160240161281293929190613f1b565b6040516020818303038152906040527f969cdd03000000000000000000000000000000000000000000000000000000007bffffffffffffffffffffffffffffffffffffffffffffffffffffffff19166020820180517bffffffffffffffffffffffffffffffffffffffffffffffffffffffff8381831617835250505050612899565b505050565b60008151905060006a636f6e736f6c652e6c6f679050602083016000808483855afa5050505050565b505050565b60006128e88473ffffffffffffffffffffffffffffffffffffffff16612ab9565b15612a51578373ffffffffffffffffffffffffffffffffffffffff1663150b7a02612911611ece565b8786866040518563ffffffff1660e01b81526004016129339493929190613cfb565b602060405180830381600087803b15801561294d57600080fd5b505af192505050801561297e57506040513d601f19601f8201168201806040525081019061297b9190613043565b60015b612a01573d80600081146129ae576040519150601f19603f3d011682016040523d82523d6000602084013e6129b3565b606091505b506000815114156129f9576040517f08c379a00000000000000000000000000000000000000000000000000000000081526004016129f090613f59565b60405180910390fd5b805181602001fd5b63150b7a0260e01b7bffffffffffffffffffffffffffffffffffffffffffffffffffffffff1916817bffffffffffffffffffffffffffffffffffffffffffffffffffffffff191614915050612a56565b600190505b949350505050565b612a688383612acc565b612a7560008484846128c7565b612ab4576040517f08c379a0000000000000000000000000000000000000000000000000000000008152600401612aab90613f59565b60405180910390fd5b505050565b600080823b905060008111915050919050565b600073ffffffffffffffffffffffffffffffffffffffff168273ffffffffffffffffffffffffffffffffffffffff161415612b3c576040517f08c379a0000000000000000000000000000000000000000000000000000000008152600401612b3390614099565b60405180910390fd5b612b4581611e62565b15612b85576040517f08c379a0000000000000000000000000000000000000000000000000000000008152600401612b7c90613f99565b60405180910390fd5b612b91600083836128c2565b6001600360008473ffffffffffffffffffffffffffffffffffffffff1673ffffffffffffffffffffffffffffffffffffffff1681526020019081526020016000206000828254612be1919061431e565b92505081905550816002600083815260200190815260200160002060006101000a81548173ffffffffffffffffffffffffffffffffffffffff021916908373ffffffffffffffffffffffffffffffffffffffff160217905550808273ffffffffffffffffffffffffffffffffffffffff16600073ffffffffffffffffffffffffffffffffffffffff167fddf252ad1be2c89b69c2b068fc378daa952ba7f163c4a11628f55a4df523b3ef60405160405180910390a45050565b6040518060a0016040528060608152602001606081526020016000815260200160008152602001600081525090565b6040518060c001604052806000815260200160608152602001606081526020016000815260200160008152602001600081525090565b828054612d0b906144e9565b90600052602060002090601f016020900481019282612d2d5760008555612d74565b82601f10612d4657805160ff1916838001178555612d74565b82800160010185558215612d74579182015b82811115612d73578251825591602001919060010190612d58565b5b509050612d819190612d85565b5090565b5b80821115612d9e576000816000905550600101612d86565b5090565b6000612db5612db084614261565b614230565b905082815260208101848484011115612dcd57600080fd5b612dd88482856144a7565b509392505050565b600081359050612def81614662565b92915050565b600081359050612e0481614679565b92915050565b600081359050612e1981614690565b92915050565b600081519050612e2e81614690565b92915050565b600082601f830112612e4557600080fd5b8135612e55848260208601612da2565b91505092915050565b600081359050612e6d816146a7565b92915050565b600060208284031215612e8557600080fd5b6000612e9384828501612de0565b91505092915050565b60008060408385031215612eaf57600080fd5b6000612ebd85828601612de0565b9250506020612ece85828601612de0565b9150509250929050565b600080600060608486031215612eed57600080fd5b6000612efb86828701612de0565b9350506020612f0c86828701612de0565b9250506040612f1d86828701612e5e565b9150509250925092565b60008060008060808587031215612f3d57600080fd5b6000612f4b87828801612de0565b9450506020612f5c87828801612de0565b9350506040612f6d87828801612e5e565b925050606085013567ffffffffffffffff811115612f8a57600080fd5b612f9687828801612e34565b91505092959194509250565b60008060408385031215612fb557600080fd5b6000612fc385828601612de0565b9250506020612fd485828601612df5565b9150509250929050565b60008060408385031215612ff157600080fd5b6000612fff85828601612de0565b925050602061301085828601612e5e565b9150509250929050565b60006020828403121561302c57600080fd5b600061303a84828501612e0a565b91505092915050565b60006020828403121561305557600080fd5b600061306384828501612e1f565b91505092915050565b60006020828403121561307e57600080fd5b600061308c84828501612e5e565b91505092915050565b60006130a18383613adb565b905092915050565b6130b281614433565b82525050565b60006130c3826142a1565b6130cd81856142cf565b9350836020820285016130df85614291565b8060005b8581101561311b57848403895281516130fc8582613095565b9450613107836142c2565b925060208a019950506001810190506130e3565b50829750879550505050505092915050565b61313681614445565b82525050565b6000613147826142ac565b61315181856142e0565b93506131618185602086016144b6565b61316a81614651565b840191505092915050565b6000613180826142b7565b61318a81856142f1565b935061319a8185602086016144b6565b6131a381614651565b840191505092915050565b60006131b9826142b7565b6131c38185614302565b93506131d38185602086016144b6565b6131dc81614651565b840191505092915050565b60006131f2826142b7565b6131fc8185614313565b935061320c8185602086016144b6565b80840191505092915050565b6000613225600b83614313565b91507f202d2d204e465420233a200000000000000000000000000000000000000000006000830152600b82019050919050565b6000613265603283614302565b91507f4552433732313a207472616e7366657220746f206e6f6e20455243373231526560008301527f63656976657220696d706c656d656e74657200000000000000000000000000006020830152604082019050919050565b60006132cb602883614302565b91507f4572726f723a20626f7373206d757374206861766520485020746f206174746160008301527f636b20626f73732e0000000000000000000000000000000000000000000000006020830152604082019050919050565b6000613331601c83614302565b91507f4552433732313a20746f6b656e20616c7265616479206d696e746564000000006000830152602082019050919050565b6000613371600e83614313565b91507f2c20226d61785f76616c7565223a0000000000000000000000000000000000006000830152600e82019050919050565b60006133b1602483614302565b91507f4552433732313a207472616e7366657220746f20746865207a65726f2061646460008301527f72657373000000000000000000000000000000000000000000000000000000006020830152604082019050919050565b6000613417601983614302565b91507f4552433732313a20617070726f766520746f2063616c6c6572000000000000006000830152602082019050919050565b6000613457602c83614302565b91507f4552433732313a206f70657261746f7220717565727920666f72206e6f6e657860008301527f697374656e7420746f6b656e00000000000000000000000000000000000000006020830152604082019050919050565b60006134bd603883614302565b91507f4552433732313a20617070726f76652063616c6c6572206973206e6f74206f7760008301527f6e6572206e6f7220617070726f76656420666f7220616c6c00000000000000006020830152604082019050919050565b6000613523602a83614302565b91507f4552433732313a2062616c616e636520717565727920666f7220746865207a6560008301527f726f2061646472657373000000000000000000000000000000000000000000006020830152604082019050919050565b6000613589602983614302565b91507f4552433732313a206f776e657220717565727920666f72206e6f6e657869737460008301527f656e7420746f6b656e00000000000000000000000000000000000000000000006020830152604082019050919050565b60006135ef606283614313565b91507f222c20226465736372697074696f6e223a20225468697320697320616e204e4660008301527f542074686174206c6574732070656f706c6520706c617920696e20746865206760208301527f616d65204d657461766572736520536c6179657221222c2022696d616765223a60408301527f20220000000000000000000000000000000000000000000000000000000000006060830152606282019050919050565b60006136a1602d83614302565b91507f4572726f723a20636861726163746572206d757374206861766520485020746f60008301527f2061747461636b20626f73732e000000000000000000000000000000000000006020830152604082019050919050565b6000613707600483614313565b91507f7d205d7d000000000000000000000000000000000000000000000000000000006000830152600482019050919050565b6000613747602083614302565b91507f4552433732313a206d696e7420746f20746865207a65726f20616464726573736000830152602082019050919050565b6000613787602c83614302565b91507f4552433732313a20617070726f76656420717565727920666f72206e6f6e657860008301527f697374656e7420746f6b656e00000000000000000000000000000000000000006020830152604082019050919050565b60006137ed602983614302565b91507f4552433732313a207472616e73666572206f6620746f6b656e2074686174206960008301527f73206e6f74206f776e00000000000000000000000000000000000000000000006020830152604082019050919050565b6000613853600a83614313565b91507f7b226e616d65223a2022000000000000000000000000000000000000000000006000830152600a82019050919050565b6000613893602183614302565b91507f4552433732313a20617070726f76616c20746f2063757272656e74206f776e6560008301527f72000000000000000000000000000000000000000000000000000000000000006020830152604082019050919050565b60006138f9601d83614313565b91507f646174613a6170706c69636174696f6e2f6a736f6e3b6261736536342c0000006000830152601d82019050919050565b6000613939603183614302565b91507f4552433732313a207472616e736665722063616c6c6572206973206e6f74206f60008301527f776e6572206e6f7220617070726f7665640000000000000000000000000000006020830152604082019050919050565b600061399f603d83614313565b91507f222c202261747472696275746573223a205b207b202274726169745f7479706560008301527f223a20224865616c746820506f696e7473222c202276616c7565223a200000006020830152603d82019050919050565b6000613a05602d83614313565b91507f7d2c207b202274726169745f74797065223a202241747461636b2044616d616760008301527f65222c202276616c7565223a20000000000000000000000000000000000000006020830152602d82019050919050565b600060a0830160008301518482036000860152613a7b8282613175565b91505060208301518482036020860152613a958282613175565b9150506040830151613aaa6040860182613bfb565b506060830151613abd6060860182613bfb565b506080830151613ad06080860182613bfb565b508091505092915050565b600060c083016000830151613af36000860182613bfb565b5060208301518482036020860152613b0b8282613175565b91505060408301518482036040860152613b258282613175565b9150506060830151613b3a6060860182613bfb565b506080830151613b4d6080860182613bfb565b5060a0830151613b6060a0860182613bfb565b508091505092915050565b600060c083016000830151613b836000860182613bfb565b5060208301518482036020860152613b9b8282613175565b91505060408301518482036040860152613bb58282613175565b9150506060830151613bca6060860182613bfb565b506080830151613bdd6080860182613bfb565b5060a0830151613bf060a0860182613bfb565b508091505092915050565b613c048161449d565b82525050565b613c138161449d565b82525050565b6000613c2482613846565b9150613c3082896131e7565b9150613c3b82613218565b9150613c4782886131e7565b9150613c52826135e2565b9150613c5e82876131e7565b9150613c6982613992565b9150613c7582866131e7565b9150613c8082613364565b9150613c8c82856131e7565b9150613c97826139f8565b9150613ca382846131e7565b9150613cae826136fa565b9150819050979650505050505050565b6000613cc9826138ec565b9150613cd582846131e7565b915081905092915050565b6000602082019050613cf560008301846130a9565b92915050565b6000608082019050613d1060008301876130a9565b613d1d60208301866130a9565b613d2a6040830185613c0a565b8181036060830152613d3c818461313c565b905095945050505050565b6000606082019050613d5c60008301866130a9565b613d696020830185613c0a565b613d766040830184613c0a565b949350505050565b60006020820190508181036000830152613d9881846130b8565b905092915050565b6000602082019050613db5600083018461312d565b92915050565b60006020820190508181036000830152613dd581846131ae565b905092915050565b60006080820190508181036000830152613df781876131ae565b90508181036020830152613e0b81866131ae565b9050613e1a6040830185613c0a565b8181036060830152613e2c81846131ae565b905095945050505050565b60006080820190508181036000830152613e5181876131ae565b90508181036020830152613e6581866131ae565b9050613e746040830185613c0a565b613e816060830184613c0a565b95945050505050565b600060a0820190508181036000830152613ea481886131ae565b90508181036020830152613eb881876131ae565b9050613ec76040830186613c0a565b613ed46060830185613c0a565b613ee16080830184613c0a565b9695505050505050565b60006040820190508181036000830152613f0581856131ae565b9050613f146020830184613c0a565b9392505050565b60006060820190508181036000830152613f3581866131ae565b9050613f446020830185613c0a565b613f516040830184613c0a565b949350505050565b60006020820190508181036000830152613f7281613258565b9050919050565b60006020820190508181036000830152613f92816132be565b9050919050565b60006020820190508181036000830152613fb281613324565b9050919050565b60006020820190508181036000830152613fd2816133a4565b9050919050565b60006020820190508181036000830152613ff28161340a565b9050919050565b600060208201905081810360008301526140128161344a565b9050919050565b60006020820190508181036000830152614032816134b0565b9050919050565b6000602082019050818103600083015261405281613516565b9050919050565b600060208201905081810360008301526140728161357c565b9050919050565b6000602082019050818103600083015261409281613694565b9050919050565b600060208201905081810360008301526140b28161373a565b9050919050565b600060208201905081810360008301526140d28161377a565b9050919050565b600060208201905081810360008301526140f2816137e0565b9050919050565b6000602082019050818103600083015261411281613886565b9050919050565b600060208201905081810360008301526141328161392c565b9050919050565b600060208201905081810360008301526141538184613a5e565b905092915050565b600060208201905081810360008301526141758184613b6b565b905092915050565b60006020820190506141926000830184613c0a565b92915050565b600060c0820190506141ad6000830189613c0a565b81810360208301526141bf81886131ae565b905081810360408301526141d381876131ae565b90506141e26060830186613c0a565b6141ef6080830185613c0a565b6141fc60a0830184613c0a565b979650505050505050565b600060408201905061421c6000830185613c0a565b6142296020830184613c0a565b9392505050565b6000604051905081810181811067ffffffffffffffff8211171561425757614256614622565b5b8060405250919050565b600067ffffffffffffffff82111561427c5761427b614622565b5b601f19601f8301169050602081019050919050565b6000819050602082019050919050565b600081519050919050565b600081519050919050565b600081519050919050565b6000602082019050919050565b600082825260208201905092915050565b600082825260208201905092915050565b600082825260208201905092915050565b600082825260208201905092915050565b600081905092915050565b60006143298261449d565b91506143348361449d565b9250827fffffffffffffffffffffffffffffffffffffffffffffffffffffffffffffffff0382111561436957614368614595565b5b828201905092915050565b600061437f8261449d565b915061438a8361449d565b92508261439a576143996145c4565b5b828204905092915050565b60006143b08261449d565b91506143bb8361449d565b9250817fffffffffffffffffffffffffffffffffffffffffffffffffffffffffffffffff04831182151516156143f4576143f3614595565b5b828202905092915050565b600061440a8261449d565b91506144158361449d565b92508282101561442857614427614595565b5b828203905092915050565b600061443e8261447d565b9050919050565b60008115159050919050565b60007fffffffff0000000000000000000000000000000000000000000000000000000082169050919050565b600073ffffffffffffffffffffffffffffffffffffffff82169050919050565b6000819050919050565b82818337600083830152505050565b60005b838110156144d45780820151818401526020810190506144b9565b838111156144e3576000848401525b50505050565b6000600282049050600182168061450157607f821691505b60208210811415614515576145146145f3565b5b50919050565b60006145268261449d565b91507fffffffffffffffffffffffffffffffffffffffffffffffffffffffffffffffff82141561455957614558614595565b5b600182019050919050565b600061456f8261449d565b915061457a8361449d565b92508261458a576145896145c4565b5b828206905092915050565b7f4e487b7100000000000000000000000000000000000000000000000000000000600052601160045260246000fd5b7f4e487b7100000000000000000000000000000000000000000000000000000000600052601260045260246000fd5b7f4e487b7100000000000000000000000000000000000000000000000000000000600052602260045260246000fd5b7f4e487b7100000000000000000000000000000000000000000000000000000000600052604160045260246000fd5b6000601f19601f8301169050919050565b61466b81614433565b811461467657600080fd5b50565b61468281614445565b811461468d57600080fd5b50565b61469981614451565b81146146a457600080fd5b50565b6146b08161449d565b81146146bb57600080fd5b5056fe6d696e746564204e465420772f20746f6b656e496420257320616e6420636861726163746572496e646578202573506c617965722061747461636b656420626f73732e204e657720626f73732068703a2025734142434445464748494a4b4c4d4e4f505152535455565758595a6162636465666768696a6b6c6d6e6f707172737475767778797a303132333435363738392b2f426f73732061747461636b656420706c617965722e204e657720706c617965722068703a2025730a506c6179657220772f206368617261637465722025732061626f757420746f2061747461636b2e2048617320257320485020616e64202573204144a26469706673582212201025482bd8479c7ed4c6a6ed5ccc8f7d25669f198e0261dcec8359b160a0269564736f6c63430008000033446f6e6520696e697469616c697a696e6720257320772f2048502025732c20696d67202573",
  "linkReferences": {},
  "deployedLinkReferences": {}
}